:020000041000EA
:1000000000B5324B212058609868022188439860DF
:10001000D860186158612E4B002199600221596106
:100020000121F02299502B49196001219960352056
:1000300000F044F80222904214D00621196600F024
:1000400034F8196E01211966002018661A6600F04E
:100050002CF8196E196E196E052000F02FF8012189
:100060000842F9D1002199601B49196000215960AB
:100070001A491B48016001219960EB211966A021F2
:10008000196600F012F800219960164914480160C1
:100090000121996001BC002800D000471248134993
:1000A000086003C880F30888084703B5996A0420EC
:1000B0000142FBD001200142F8D103BD02B5186610
:1000C0001866FFF7F2FF186E186E02BD00000240BE
:1000D000000000180000070000035F00212200005C
:1000E000F4000018222000A00001001008ED00E03C
:1000F00000000000000000000000000074B24E7A12
:1001000000200420F7010010CB010010CD010010E9
:10011000C9010010C9010010C9010010C901001077
:10012000C9010010C9010010C9010010CF01001061
:10013000C9010010C9010010D1010010D301001045
:10014000C1010010C1010010C1010010C101001067
:10015000C1010010C1010010C1010010C101001057
:10016000C1010010C1010010C1010010C101001047
:10017000C1010010C1010010C1010010C101001037
:10018000C1010010C1010010C1010010C101001027
:10019000C1010010C1010010C1010010C101001017
:1001A000C1010010C1010010C1010010C101001007
:1001B000C1010010C1010010C1010010C1010010F7
:1001C000EFF30580103800BE00BE00BE00BE00BECA
:1001D00000BE00BEF2EB8871485E04106C5E041035
:1001E0003802001090A31AE71E481F49086006C88D
:1001F00081F3088810471D480068002801D019487D
:10020000F3E70DA40ECC002902D000F012F8F9E7B4
:100210001749184A002000E001C19142FCD116495B
:100220008847164988471649884700BEFDE701C937
:1002300001C29A42FBD370476C5E0410D0000020CC
:10024000B01900204C7704100000042000000420A6
:100250004C7704100010042000100420000000005F
:10026000704700000000000008ED00E0000000D032
:10027000B0190020848B0020D55B0010D102001043
:10028000CD5B0010F8B5C04610B5064C2378002BA6
:1002900007D1054B002B02D0044800E000BF01232A
:1002A000237010BD381D002000000000C8C40010DD
:1002B000044B10B5002B03D00349044800E000BFF5
:1002C00010BDC046000000003C1D0020C8C4001046
:1002D000F0B5DE4657464E464546E0B5642085B04B
:1002E00002F06CFC0A2408F0C1FC05F0B5FD06F034
:1002F0002DF9002805D1FA20013C02F05FFC002C0A
:10030000F5D19620400002F059FC00F075F800F09D
:1003100087FA00F0B3F809F03BFC00F00BFA02207A
:1003200001F0FAF900F00AF90BF06EFA00F01CFA8D
:10033000294B2A481B68002719009A4605F066FEDB
:1003400002F0E6FC264B04009946264B0D009B4626
:10035000254B264E984628E002F0DAFC80197941B8
:1003600004000D1E33DB00F087FA41464B464A4637
:1003700009795B8812880391414649885846029161
:10038000414609880191494609790091514605F095
:100390003DFE642000F01AFA01F030FA00F0F8F99E
:1003A00000F022FA0A2002F009FC02F0B1FC22005F
:1003B0002B00121A8B41002BEBDCCDD1002AE8D1A7
:1003C00002F0A6FC8019794104000D1ECBDA01244D
:1003D000074D6442C7E7C04684550410C8C40010E6
:1003E0003423002004C50010246B0020A0860100E7
:1003F000FFFFFF7F7047C04610B51E491E4808F03A
:10040000DBFB0321062001F083FB0321072001F021
:100410007FFB00220121062001F094FB0022012134
:10042000072001F08FFB132001F04EFCD024802325
:1004300024061B036362142001F046FC80235B0347
:100440006362122001F040FC8023DB0200220121C4
:10045000A362122001F076FB102001F035FC80230E
:100460005B02A362112001F02FFC80239B02A36298
:1004700010BDC046A086010060110020F0B52448E0
:1004800085B005F039FD234805F036FD0024224FE4
:10049000224D234E1AE0782A20D000230F22009309
:1004A000204801336A4408F0BBFB002816DB152CFA
:1004B0001BD01D4805F0AAFDE34328001B0700D010
:1004C0003000013405F0A2FD802C1FD0230707D097
:1004D00078232200E1B21A401C42DCD11348E9E73C
:1004E0002100380005F092FDF2E70122104B402078
:1004F0001A70104B0F321A700F4B033A1A7005F036
:10050000AFFC074805F082FD0134DFE705B0F0BD20
:1005100044C5001054C5001088C50010F0550410E3
:1005200040C50010601100203CC5001038C5001007
:100530007F8B0020801000206811002070B51720EC
:1005400001F0C2FBD02580232D061B04AB620122E3
:100550000C210B4B172001F03BFB0A4C207801F0DB
:10056000B3FB01232078002283400121AB6201F01C
:10057000E9FA01220C21207801F0FEFA70BDC04694
:10058000F503001080100020F0B5C64600B5524BB0
:1005900084B0DA689B68101C191C0093019203F068
:1005A000C6FD4E4B041C1D680098291C03F008FE74
:1005B000002800D1009D0198291C03F007FE0028A7
:1005C00000D17CE00099281C03F0B1FD0021051C3E
:1005D000201C03F0FBFD002800D178E0211C281C22
:1005E00003F0ABFD3E4903F0BCFD3E4903F0A2FD24
:1005F0003D4903F0B6FD3D4903F09FFD03F050FE79
:1006000002000B003A483B4903F053F903F038FA73
:10061000051C03F04FFE8621C90503F0A2FD03F07F
:1006200001FE783007B2281C03F056FE8621C9056A
:1006300003F097FD03F0F6FDC324261A281C03F0EF
:100640002FFE2B4A2B4B03F03DF903F019FA80469D
:1006500003F030FE8421C90503F083FD03F0E2FDC1
:10066000783005B2404603F037FE8421C90503F017
:1006700078FD03F0D7FD201A36B200B202AB1F801E
:100680005E8003AB1D8058801B4B1C4D1C7802996B
:1006900063425C413F2364429C43194B28689C465B
:1006A00064442200062300F075F906232200039912
:1006B000286800F06FF904B080BCB846F0BD002196
:1006C000201C251C03F082FD002800D086E7D920DD
:1006D0008E2569261E27D1E784550410DC240020CE
:1006E0000000B44200003442DB0F494000003443B4
:1006F000F1D4C853FB2109407A8B002078D1001037
:1007000040F8000010B5084B1868084B1B78002B08
:1007100006D1074B5969E122520203F03BFF10BD9D
:10072000034B9969F7E7C0463C2300207A8B0020F1
:1007300084550410E12010B5400203F007FF074C78
:10074000074B20601860002802D009F04DFB10BD57
:10075000044805F0D1FB2068F7E7C0463C230020A1
:100760004023002090C5001010B500F099F9054C09
:100770000549200000F0ACF92000044900F0A8F978
:1007800010BDC046588B00200507001089050010D9
:1007900010B50C4B82B01B69041C0021181C01937E
:1007A00003F014FD002809D00199201C03F0C5FCBA
:1007B00003F0D6FD019903F0D4FC041C024B1C602D
:1007C00002B010BD84550410DC240020430018182A
:1007D000430110B5C018642102F030FE014B013016
:1007E000187010BD90100020E122094B10B50021B7
:1007F0005202186803F0C8FE064B187808F0C0FBD8
:10080000054800F0EDFD054B186809F07BFA10BDB6
:100810004023002090100020588B00203C23002013
:1008200010B508F007FA1F211A2001F071F9002213
:1008300000211A2001F086F900211A2001F030FA77
:100840001F211C2001F064F9002200211C2001F06E
:1008500079F900211C2001F023FA1F211B2001F04F
:1008600057F9002200211B2001F06CF900211B2008
:1008700001F016FA10BDC046E021F0B5C6463A4A6E
:10088000C901136800B50B40384908240B6080216A
:1008900000200425364E4900356013680B42FCD019
:1008A0005368013C1B041B0CC018002CF4D1314EC2
:1008B000C0083080304D0004000C45432F4928000B
:1008C00002F0BCFD2E4B70809D4247D92D4B9D42BE
:1008D00046D864232C49584302F0B0FDC0B22B4BDC
:1008E00030719E88DB88204A9846802311689B01DE
:1008F0004B40E021C9010B401C4980200B600427BC
:1009000008211B4D40002F6013680342FCD0536840
:1009100001391B041B0CE4180029F4D11C4FE40816
:100920003C802404200C144C1449604302F086FDE2
:1009300083B27B8046450CD29E420AD2984511D99B
:100940006423801B58434346991B02F077FDC0B2D5
:1009500000E00020387180BCB846F0BD0020BEE742
:100960006420BCE76420F5E700C0044000D00440E8
:1009700000E0044034230020E40C0000FF0F0000DE
:10098000FE0F000073B5A8008C0A00008455041007
:10099000246B0020D0B51F0084B0CEB2040C0B0C29
:1009A000039002910092DBB23200E1B2C0B2019733
:1009B00009F050FA04B0D0BDF8B5DE4645465746BA
:1009C0004E46E0B505698B462C886B889C420CD05E
:1009D0006A6859460120A300013499502C80F0BC6C
:1009E000BB46B246A946A046F8BD002C3BD06300EA
:1009F0009BB29846980003F0A9FD061E48D06A688D
:100A0000002A36D0002CE4D00723134059424B4132
:100A10000A21601E80B281428941494219422DD08B
:100A2000131D9E422AD063089A469146B44600237D
:100A30004F4603CFB946674603C701339BB2BC4656
:100A40009A45F5D1012123008B43214202D09B001E
:100A5000D158F150100003F08BFD434632002C8832
:100A60006E606B80B5E704236B80043320209846CA
:100A7000C1E74346020068606B80AAE700210023BB
:100A8000505801339BB2705004319C42F8D1E1E7D9
:100A9000024805F031FA0020A1E7C046A055041035
:100AA00070B5094B094C0025A3600123082065603F
:100AB000A3812560A373256103F048FD002801D0C0
:100AC00005604560206170BDF000F000588B00208B
:100AD00070B5050018200E0003F038FD041E0ED07E
:100AE0000023012205604360836083818273066175
:100AF0004361002D03D02B7B013B012B01D920004A
:100B000070BD01002800FFF757FFF8E7F0B5DE469B
:100B100057464E464546E0B5046905001623E05E9B
:100B2000237FE2689B009B588BB0D98802F05EFC63
:100B30000227C6B226702879A9796B892A8901977C
:100B4000A78ACB1882180433043204390438DBB284
:100B50000097D2B2C9B2C0B20AF0A6FB6778237878
:100B6000BB4201D3002323701622A35E9B46E36899
:100B7000584699464A46237F09939B009B58D9883B
:100B80009A4602F033FC8846002900D09FE0002EF0
:100B900000D199E03700701EC0B2E9882E79043187
:100BA000CBB298466368002B00D14AE18000C2585E
:100BB00000230293638A41460193238A3000009305
:100BC0004B4609F03DFA6378BB4201D8FF1AFFB2E9
:100BD000227FE3689200D2582E79D188EA880432C5
:100BE0008918CAB290466268002A00D123E1B90090
:100BF0008A5800210291618A30000191218A009176
:100C0000414609F01DFA23786278934201D39B1A7A
:100C100023700137F8B2824201D8801AC0B2227F15
:100C2000E3689200D2582F79D688EA887600043299
:100C3000B6186268F6B2002A00D1F7E08000825848
:100C400000210291618A38000191218A00913100CE
:100C500009F0F6F91623E25E668AB84BE988D8886F
:100C60000196FC26F600009602264000091AC9B239
:100C7000287909F093FD237FE1689B005B582A895E
:100C8000D988EB88083AC9182879AD4BD2B2C9B2D5
:100C900000960AF051FA237FE1689B005B582A898D
:100CA000D988EB8849000433C918083A2879A44B3D
:100CB000D2B2C9B200960AF03FFA0BB0F0BCBB4604
:100CC000B246A946A046F0BD781EC0B265E75346BD
:100CD000099A9B88019252467B43090400929948E5
:100CE0005A46013B090C05F091F9002E00D1AEE007
:100CF000701EC0B22B799A46EB880433DBB299465A
:100D00006368002B00D1F6E08000C2584346002102
:100D1000DFB2E36806910597049103910291618A1D
:100D200050460191218A0091494609F0B3FA607852
:100D3000B04201D8361AF6B22B79227F9A46E36880
:100D40009200D258E988D28804315218D21BD2B20C
:100D500091466268002A00D1C7E0B1008A5800219C
:100D60000291618A50460191218A013600914946DB
:100D700009F066F96378F6B2B34201D8F61AF6B212
:100D80002B79227F9A46E3689200D258E988D2886C
:100D9000043152005218D21BD2B291466268002A26
:100DA00000D19CE0B1008A5800210291618A50462E
:100DB0000191218A01360091494609F041F9F0B2CA
:100DC0006678864201D8801BC0B22B79227F994673
:100DD000E3689200D258EE88917904364A008A1866
:100DE000B6186268F61BF6B2002A6FD080008258EF
:100DF000CF1B0021FFB20697059104910391029148
:100E0000618A48460191218A0091310009F042FA35
:100E10001822A35E002B1ED0E28A99B28A1812B261
:100E2000E282002B6BDD0139218315E7A368984727
:100E3000E368020004E7A36838009847E36802000B
:100E4000D7E6A3689847E36802009946B0E666785B
:100E5000701EC0B24EE7E37E002B34D1434699B2F8
:100E6000002930D0384B6A699B6A9B1A374A9342F3
:100E700029D9237FE2689B009B58D88843088B427E
:100E800040D2CB1A9BB25A1E032A4BD8022B4FD901
:100E9000023189B22278031C4243884200D90B1CDC
:100EA000D21891B212B2E28263785843824203DBD5
:100EB0000A1A91B212B2E282002A00DBCCE60818CC
:100EC00002B2E282C8E61623E25EC5E6A36898474E
:100ED000217FE3688900C9580200897988E7A368FF
:100EE00030009847E36802005EE7A3683000984747
:100EF000E368020033E7A3689847020006E7013180
:100F00002183A9E65B1A9BB25A1E032A0DD8022B35
:100F100011D98A1E92B221784143521891B212B26D
:100F2000E282C1E7033189B2B4E703398AB2F2E75A
:100F3000013189B2AEE74A1E92B2ECE7841000207C
:100F400007E00000B45504100040054027110300DD
:100F5000F0B5DE464E4645465746E0B50469050005
:100F60001623E05E237FE2689B009B588BB0998834
:100F700002F03CFAC6B26078B04201D8361AF6B236
:100F8000022726702879A9796B892A890197A78A6F
:100F9000CB1882180433063A04390638DBB20097BE
:100FA000D2B2C9B2C0B20AF07FF967782378BB42E7
:100FB00001D3002323701622A35E9A46E3685046AD
:100FC00099464A46237F9B469B009B5808939B88E3
:100FD0001900984602F00AFA002900D0ACE0002E71
:100FE00000D19AE0AB79701E984663683700C0B2B2
:100FF0002E79002B00D199E08000C2580123029382
:10100000638A41460193238A300000934B4609F0DE
:1010100017F86378BB4201D8FF1AFFB2227FE3685A
:101020009200D2589088AA888018AA79C6B29046B1
:101030006268002A00D145E1B9008A580121029175
:10104000618A30000191218A0091414608F0F8FF41
:1010500023786278934201D39B1A23700137F8B248
:10106000824201D8801AC0B2227FE3689200D2582F
:10107000AF799188AA8849005218D6B26268002ACE
:1010800000D11AE18000825801210291618A30006A
:101090000191218A0091390008F0D2FF1623E25E07
:1010A000668AC84BE988D8880196FC26F600009627
:1010B00002264000091AC9B2287909F06FFB237F84
:1010C000E0689B001B586A899888AB88E988013BD7
:1010D000C018083A0831BC4BD2B2C9B2C0B20096AF
:1010E0000AF052F8237FE0689B001B586A899888B1
:1010F000AB88E98801334000C018083A0831B24B88
:10110000D2B2C9B2C0B200960AF03EF80BB0F0BC41
:10111000BB46B246A946A046F0BDAB79781E9846BC
:1011200063682E79C0B2002B00D065E7A3689847AA
:10113000E3680200994661E78BB20904090C89460D
:1011400059460993434601910899013F52467B4312
:1011500000919E48494604F059FF237FE1689B00B7
:101160005B589A88637853434B4504DC099AD31A39
:101170009BB2994609934946954804F047FF002ED3
:1011800000D1A5E0701EC0B22B799846AB79994684
:101190006368002B00D1EFE08000C25824216B4629
:1011A0005B1800211F78E3680691059104910131D5
:1011B00003970291618A40460191218A0091494634
:1011C00009F068F86078B04201D8361AF6B2227F8A
:1011D000E3689200D258A98892885218D21BD2B2E2
:1011E0009046AA7991466268002A00D1BEE0B1001B
:1011F0008A5801210291618A40460191218A013673
:101200000091494608F01CFF6378F6B2B34201D85A
:10121000F61AF6B2227FE3689200D2589188AA8823
:1012200049005218D21BD2B29046AA799146626800
:10123000002A00D1A4E0B1008A5801210291618AFC
:1012400040460191218A01360091494608F0F8FE96
:10125000F0B26678864201D8801BC0B2227FE36874
:101260009200D25896887200B218AE88B618AA7941
:10127000F61B90466268F6B2002A72D0800082584F
:101280000021069105910391013104970291618A31
:1012900030000191218A0091414608F0FBFF18229D
:1012A000A35E002B18D0E28A99B28A1812B2E282A9
:1012B000002B6BDD01392183F2E6A3689847E368D0
:1012C0000200E1E6A36838009847E3680200B5E64B
:1012D0006678701EC0B257E7E37E002B3ED1099BB3
:1012E000002B3BD03B4B6A699B6A9B1A3A4A93425C
:1012F00034D9237FE2689B009B5809999B885A0840
:101300008A4246D28A1A92B2002A4DD0042A4CD878
:101310000800022A51D9023080B2191C834200D938
:10132000011C89B2207858430818E0822B4804F049
:101330006DFE1623E25E237FE1689B005B5899886F
:1013400063784B439A4202DBD21A12B2E282002A3D
:1013500000DBA5E69A1812B2E282A1E61623E25E4D
:101360009EE6A3689847E368020089E7A368300017
:101370009847E36802003CE7A368984702000DE73E
:10138000A36830009847E368020056E701312183E3
:1013900086E6521A92B2002A0BD0042A0AD8022AF0
:1013A0000ED9023989B2BDE705220800033080B2A8
:1013B000B3E70522033989B2B4E7013080B2ACE764
:1013C0000139AEE78410002007E00000B455041096
:1013D000DC5504100040054027110300E4550410BB
:1013E000F0B5DE4657464E464546E0B5837B0400E1
:1013F00089B0022B3AD0037B5A1E012A42D9002B16
:101400003BD0062B00D1F7E0072B00D1E3E0082BFF
:101410004DD0032B00D123E1042B00D10DE1092B8A
:1014200000D1F4E00A2B00D029E12569AB79EA79F3
:101430000133DBB22E7AAB719A4204D801235E40AD
:1014400000232E72AB712079A179228963898218D9
:10145000CB18D2B2DBB2002E00D11AE1AE882C88B4
:101460000096013CE4B2019409F01EFF09B0F0BC03
:10147000BB46B246A946A046F0BD2369002BF5D075
:101480009847F3E70669002EF0D03388002BEDD0A3
:1014900000257268AB009858FFF7A2FF013533882A
:1014A000ADB2AB42F5D8237B002BAAD1E5E7276983
:1014B0003E7B002E00D183E080203100C00001F08F
:1014C00095FF83B21D00994675430822A35E0A3D2D
:1014D0005B100A331BB298462DB2012E47D06F4BDA
:1014E00000269B4601239A4608E06D4A94466344D1
:1014F0001DB201363B7BB6B2B34261D941462800EA
:101500000AF02CF803000790A0889AB280180821EE
:10151000625EE18852101B0C8018C9180A22A35E73
:1015200080B25B10C9188BB20593BB684D441A7822
:10153000921B514251415A464B421340F82212022B
:10154000944652460191634400920599032209F0A2
:101550004BF98022ABB22DB2D2009542C5DA002DF4
:10156000C7DA8022D200944663441DB2C1E7190055
:10157000280009F0F3FF03000790A0889AB28018B2
:101580000821625EE18852101B0C8018CB180A22D9
:10159000A15E80B249105918BB6889B21A780096CA
:1015A000531E5D426B413D4D5B422B40F8252D02A1
:1015B000AC46551EAA4163440192032209F014F976
:1015C000A37A227AA17920797C680194002400947E
:1015D00008F010FC4AE7A37A257998462369A67992
:1015E000277A98470023019000933A004346310040
:1015F000280008F0FFFB39E7A37A227AA179207945
:10160000246901940024009408F0F4FB2EE7256976
:10161000AB79EA790133DBB2AB719A4228D92B7AE4
:10162000A088E1882289002B20D0AB880024019477
:101630002C88009409F0D8F818E72369194D2B601D
:101640001B68984702002D686B68A1792079AC7CF3
:1016500002946C8901942C89009408F0F1FC05E750
:101660002569114B2A681D606B68EEE76B88DDE722
:1016700001222B7A534000222B72AA71D0E70B2B48
:1016800000D0F3E6637B2000102B04D0FFF760FC52
:10169000ECE66E88E3E6FFF739FAE7E61F08FFFF9E
:1016A00000FCFFFF548B0020508B002030B585B02C
:1016B000012826D002280BD0134B03AA1380002345
:1016C000152100931148023307F0A0FA05B030BD90
:1016D0006A4600250D4C0E4B15219381200003AA6C
:1016E0000223009507F092FAD5236A465B009381A6
:1016F000A93B152120000095FF3B03AA07F086FABD
:10170000E4E7044B03AAD9E7FA7100006011002056
:10171000FA110000FA410000F0B5D024802524061B
:10172000ED0385B0A5610600782001F047FA6561F8
:10173000782001F043FAA7236A460127D3720B22CF
:1017400000252B4C1521A63B6A442000009707F08A
:101750005DFA012315212000009503AA07F060FA25
:101760006B461B7BB52B3ED16A460C3BD3720B22DA
:1017700015210097A83B6A44200007F047FA01238F
:10178000152103AA2000009507F04AFAFF236A46B4
:101790005B009381FD3B1521FF3B03AA20000095D0
:1017A00007F034FA3000FFF781FFEE236A46114F4D
:1017B000FF339381EC3B15213D60FF3B03AA2000E2
:1017C000009507F023FAF7236A465B009381ED3B0F
:1017D000152120000095FF3B03AA07F017FA01200E
:1017E0003E7105B0F0BD044804F086FB0020F8E728
:1017F000601100205C1D0020F455041010B582B06B
:1018000001F086FA00292DD0FA220023920001F07F
:1018100053FE1E4901F012FE1D4B0800994216D9D5
:101820001C4B00249C46FA2360441B01984221D3A0
:10183000194B9A68D868111C019202F078FC211C9F
:1018400002F08FFC019902F075FC02B010BDFA2382
:101850001B0199420BD202F0BEFC104902F06DFC54
:10186000041CE5E7FA21890001F0E8FDD1E7FE2438
:10187000A405DDE702F0AFFC084902F05EFC011CA4
:10188000FE20800502F053FC041CD1E72823000051
:10189000931100006CEEFFFF8455041000007A45A0
:1018A000D0231B061B68F0B59A004546904641467A
:1018B000934ADE465258574693465A1E9341302269
:1018C0004E465B421A4013008E4AE0B5944683B000
:1018D000634401938C4B08269A463500083DEA087C
:1018E0001300019908339B005C58002C27D05B46FD
:1018F000002B2ED001230F27994639002140274283
:1019000017D0524640462B001258203BEA40DB17C6
:1019100013404A4613420CD1072208002A40920085
:1019200090400200EB0879483C339B001A50280095
:10193000D84724090135002C01D0B542DDD3083643
:10194000282ECAD103B0F0BCBB46B246A946A04679
:10195000F0BD0F2318002040234209D041466A4BB6
:1019600059583300E940283BDB0F0B4200D197E088
:101970002309F11F002BE2D00F22100018401A4259
:1019800011D04246604B9A583300CA40273BDB0FC8
:10199000134208D10722CB081140890088405B4AD6
:1019A0003C339B009850230AB11F002BC7D00F2255
:1019B000100018401A4211D04246534B9A58330037
:1019C000CA40263BDB0F134208D10722CB08114047
:1019D000890088404D4A3C339B009850230B711F6F
:1019E000002BACD00F22100018401A4245D1230C16
:1019F000311F002BA3D00F22100018401A4258D1DB
:101A0000230DF11E002B9AD00F22100018401A420D
:101A100062D1230EB11E002B91D00F22100018406E
:101A20001A4211D04246384B9A583300CA40223BE2
:101A3000DB0F134208D10722CB08114089008840F0
:101A4000324A3C339B009850240F711E002C00D169
:101A500075E7534642469A583300CA40213BDB0F94
:101A6000134200D06BE70722CB08114089008C405D
:101A7000264A3C339B009C5061E74246224B9A58D1
:101A80003300CA40253BDB0F1342B0D10722CB08FD
:101A90001140890088401D4A3C339B009850A6E7BE
:101AA00007231D40AD00A840184B3C329200D05097
:101AB0005EE74246144B9A583300CA40243BDB0F82
:101AC00013429DD10722CB081140890088400F4A5C
:101AD0003C339B00985093E742460B4B9A58330097
:101AE000CA40233BDB0F134293D10722CB0811409E
:101AF00089008840054A3C339B00985089E7C046DE
:101B00004424002000410140146B002000400140AB
:101B100010B54024084A83009A181268C000544047
:101B2000C0222240054CA44663441A60044B9C46E4
:101B30006044416010BDC04604C0014004D0014073
:101B4000004001400B4B80009C46604400290ED1B0
:101B500000230431002A00D11900802203685201B9
:101B6000594094460C2360440B40036070470C219D
:101B70000823EFE704C00140D0231B061B6830B5E3
:101B80000500581E834110485C42844607203023DC
:101B9000284023408000EC08814020000B4D3C3061
:101BA00063448000A40041511B19002A05D0802203
:101BB000920194466344196030BDC022920194465C
:101BC00063441960F8E7C04600410140004001400D
:101BD000F8B545469846D0231B06DE461C689B4652
:101BE0002B4B57469A46A3004E469946E0B55346BE
:101BF00016004A469B5807000D00002B34D0434680
:101C0000002B3FD053464A4641469950D0231B06ED
:101C10001C6807201F4A631E9C419446FA08110065
:101C2000302338408000854064421B4823403C31CB
:101C30006344890092000D509B18002E0ED0802224
:101C400092019446634401210D201D6000F042F989
:101C5000F0BCBB46B246A946A046F8BDC0229201E0
:101C6000944663441D60F3E74346002BD1D05346AE
:101C700041460D2099500022084900F08DF95B463D
:101C80001C68C6E70D20054900F07AFABAE7C0469D
:101C9000442400200041014000400140A1180010F0
:101CA0008000002905D0064B9C4640236044036019
:101CB0007047044B9C46402360440360F8E7C046ED
:101CC00004E0014004F001400123D0228340402180
:101CD000120693629361094A83009A181268C00041
:101CE0005140C0220A4006498C4663441A60054BA5
:101CF0009C460523604443607047C04604C00140D1
:101D000004D00140004001408023DB051868000F2B
:101D10007047C0460FB400B5084883B004F0ECF833
:101D2000049B002B07D005A91800019103F01AFFAE
:101D3000034804F0E1F8012003F02CFF14560410CE
:101D4000F055041070B5EFF3108C72B60D4D2B6882
:101D5000002BFCD0BFF35F8F0724CB08C618C05CF4
:101D600001230C40A3401C000440034207D103435D
:101D70003370BFF35F8F2C608CF3108870BD100040
:101D8000FFF7C8FF2C0100D0F8B54746CE4688467D
:101D900080B5EFF3108C72B6214D2C68002CFCD06E
:101DA000BFF35F8F9A422CD8D4080727055D061928
:101DB00001241740BC402C421FD00721012789462F
:101DC00009E0D408055D06194C4639001440A140CD
:101DD0000C00294211D001329342F2D2012040423C
:101DE000BFF35F8F00220E4B1A608CF3108800281F
:101DF0000FDBC0BCB946B046F8BD2C4310003470B0
:101E0000EEE7BFF35F8F00232B608CF31088012077
:101E100040424346002BECD00898FFF77BFFC046BA
:101E20002C0100D030B5EFF3108C72B60A4C236849
:101E3000002BFCD0BFF35F8F07230122CD08194090
:101E40008A40435D93434355BFF35F8F0023236074
:101E50008CF3108830BDC0462C0100D0044A1078A5
:101E6000431CDBB2172B00D9102313707047C046F8
:101E70009110002000B5054B83B00100009318229B
:101E80001F230348FFF780FF03B000BD2456041052
:101E9000742400200021044B044ABFF35F8F02C367
:101EA0009342FAD17047C046000100D0800100D0B3
:101EB000054B064A1360064A136053609360D36073
:101EC00013615361936170478080808000E400E07B
:101ED00004E400E01F2318401E3B8340002905D086
:101EE000C021044A490053501360704780220149C1
:101EF0008B50FAE700E100E001228240034B1B68AF
:101F000013405A1E9341D8B27047C04600E100E02A
:101F100001238340014A13607047C04600E200E09D
:101F2000064B10309B688000C358054A00209B1A5E
:101F30002F229A424041C0B27047C04600ED00E0F7
:101F40009410002070B50D00EFF3108672B60F4AA2
:101F50001368002BFCD0BFF35F8F0D4B10309B68D4
:101F600084001B590B4A934203D09D4201D001F0DB
:101F700007F9074B9B681D51BFF35F8FBFF35F8F5E
:101F80000022024B1A6086F3108870BD240100D035
:101F900000ED00E0C1010010F0B557464E46DE46A8
:101FA0004546E0B585B0060002911700EFF3108BAF
:101FB00072B6674A1368002BFCD0BFF35F8F002511
:101FC000644B5D579A46002D00DAA4E06B00624C2A
:101FD00003935B199B009846A146C1444B46524669
:101FE0009B79103613705D4BB2009B680192995833
:101FF0000B1B2F2B34D95A4B994200D0A4E0039BE2
:10200000584A9C46584B6544AD00635343460233DF
:102010006519E418554B0121043B1B1B1B055B0D87
:1020200013436B80524BEF71AB80FF23AB71029B6C
:10203000AB604B460B431900484B019A9B68995083
:10204000BFF35F8FBFF35F8F0022414B1A608BF3AA
:10205000108805B0F0BCBB46B246A946A046F0BD0C
:1020600001200A008243D379BB422FD845464E4611
:10207000130040491B1B5B415943090D3A4B635305
:102080003A4B02356519043B5B1B1B05354D5B0D57
:102090002B4373800426B446E0444444131F1B1BA7
:1020A0004C46A17102991B05A16049465B0D2B436B
:1020B000A380314BE77101431360BDE75800C0189E
:1020C00080002018C679BE422BD902000623D356C1
:1020D000002BF3DA101D82462848804604267642FB
:1020E000B446E14450464E46361A3005400D82460D
:1020F00056461C48957106439680039A944665445B
:102100001D4AAD00641922604246A371029BA28061
:10211000E771A36090E701F033F8002553465D575F
:1021200054E7101D824690884005001584464046BD
:10213000D444664604302018301AE0260005400DCD
:10214000360230438046C9E701F01AF857E7C04627
:10215000240100D07B8B00209410002000ED00E0D3
:10216000C101001000E0FFFF00A1FFFFC41000202C
:1021700001BDFFFFAAAA00000148804701BD000081
:10218000F0B5DE4657464E464546E0B50C0083B0F6
:10219000EFF3108972B65F4A1368002BFCD0BFF3CF
:1021A0005F8F5D4B9A68030010339F00D5595B4ADF
:1021B000904695423DD0A5424ED0594EAA1B2F2A9B
:1021C00037D8584A9346126894460122614692468F
:1021D000824011401F221040524682409246019197
:1021E0008022514658468150BFF35F8FEFF305823E
:1021F0009346002A32D101232A009A4390688442F0
:1022000008D17CE04B005B189B00F318986884426F
:102210002ED01A00062151560029F3DA84424DD0FF
:10222000019B002B1FD0C02251463E4B52009950BB
:102230001960394B9B68DD51BFF35F8FBFF35F8F30
:102240000022344B1A6089F3108803B0F0BCBB46FF
:10225000B246A946A046F0BD1500EAE79342CAD0AF
:1022600000F08EFFC7E7802351462E4AD150E0E7A9
:1022700006215956002922DB4A00501880003418E4
:102280008046A0689860E079D87106202056987141
:10229000002825DBA488F01A64052415444400199D
:1022A000E0240005400D24022043988052181E4B64
:1022B0009200B6181A781970B271B1E71300594636
:1022C00000290FD1FF3191711849918016490A7880
:1022D0009A71174A9B1B5B415A43120D0A709FE784
:1022E0001448E2E7144A1549D21A083A5002400D40
:1022F00001439980124952080A43DA8090E7062187
:10230000515613000029B7DA5A46002AEAD1454649
:10231000DCE7C046240100D000ED00E0C101001060
:102320009410002000E100E07B8B002001BDFFFF46
:10233000AAAA000001BD0000CE10002000F0FFFF9F
:1023400000F8FFFF70B501240443EFF30581EFF3BC
:10235000108C72B6214A1368002BFCD0BFF35F8F3C
:102360001F4B05001F4AED1A6D416A43120D1E4DA9
:102370008900AE6852B27658A6421CD00621595642
:1023800091421CD012215956914222D01E215956F9
:10239000914220D02A2159560324914210D0134B48
:1023A00019781A708171BFF35F8F00220B4B1A608E
:1023B0008CF3108870BDAB680D4C5C50EFE70024C7
:1023C0006100091989005B18FF21997109499980F9
:1023D000E5E70124F4E70224F2E7C046240100D037
:1023E00094100020AAAA000000ED00E07B8B0020E2
:1023F000C101001001BDFFFF00B5074B83B0010014
:102400000093002205230548FFF7BEFC002801DBEE
:102410001F23181A03B000BD40560410818B002002
:10242000024B9C46614489000160704740000034C3
:10243000F8B5134D134E2C00FF27B5421ED223686A
:10244000002B0FD0FFF70AFD01002800FFF7E8FF7F
:10245000A780BFF35F8F0834B4420FD223682500F2
:10246000002BEFD1FFF7FAFC01002800FFF7D8FF9F
:102470002771BFF35F8F0834B442EFD3F8BDC04675
:10248000A8190020B019002010B50400FFF7E6FCE1
:1024900001002000FFF7C4FFFF232371BFF35F8F0C
:1024A00010BDC04610B504000120FFF7E3FC044B4B
:1024B0009C46604480002060BFF35F8F10BDC04623
:1024C00040000034034B9C46614489000160BFF327
:1024D0005F8F7047400000340A4B1968EFF310809B
:1024E00072B60A68002AFCD0BFF35F8F1B68BFF387
:1024F0005F8F00221A6080F3108840BF0020002107
:102500007047C046306B0020F0B5DE4657464E4659
:102510004546E0B585B0EFF30582032313409A00EA
:1025200011000392B64A5258904601229A409146B1
:10253000B44B1A604B46B4484363434608229B5E43
:102540009A46002B3DDA43469B881BB2002B00DBEA
:10255000A1E043469B79002B00D0F3E043460824DA
:102560001C5F002C23DB42465269630094461B1912
:10257000DB0063449C68DD68631C00D10FE1A24866
:10258000039984466144826A0B69A61A9B1A9E428B
:1025900015D34A46036A1A4211D09B4800F0B0FB9B
:1025A000241A8D41002D02DCC4D1002CC2D040BFC2
:1025B00005B0F0BCBB46B246A946A046F0BD0C61D2
:1025C000EBE7424652695B0093465344DB009B4471
:1025D0005B469E68DF6800F093FB801BB9410029D1
:1025E000B1DB002F00DAE5E05B46884A1B699342C5
:1025F00000D1D8E041465A460820085E52880004BF
:1026000010435A465169984704000D0023002B439C
:1026100000D1CFE0002D00DBE8E0361BAF413400F5
:102620003D005B469C60DD600021595E002900DAB8
:1026300089E743465B6922009C462B00480040180E
:10264000C00060448668C768921BBB41002B00DA5B
:1026500079E74346664602000094019519810CE033
:102660007B00DB19DB00F318009801999C68DD689A
:10267000001BA941002904DB1A000023D75E002FAC
:10268000EEDA5B461F805346138043469B881BB29D
:10269000002B00DA5DE743461A69EFF3108172B64A
:1026A0001368002BFCD0BFF35F8F43469B884246E4
:1026B0001BB29A4601235B4293801369BFF35F8F7D
:1026C00000221A6081F310885346002B00DA40E79D
:1026D00043465B699C46082343449B4653465F0040
:1026E00043465744FF0008229A5E67445E46BC6832
:1026F000FD68002A19DB3B000094019567469C4663
:1027000004E01E000023F25E002A0BDB0098019912
:1027100053009B18DB00FB189C68DD68001BA94177
:102720000029EEDA6346BC461F0053463380002181
:102730007B5E3A809A46002BD0DA43469B79002B89
:1027400000D10BE7002342469371434646460821D9
:10275000595E08364B1C00D129E747468C4655691F
:1027600002E006004B1C17D04B005B18DB00E8189A
:102770000A00E95E43881BB2002BF2DA01235B42B8
:10278000DC178360C4606245ECD031803B8994469D
:1027900003803A814B1CE7D1B8466446E1E66B1CE6
:1027A00000D0ECE6F9E65B465C69200023699847B7
:1027B000002821D15B4642461B8813811269EFF342
:1027C000108372B611680029FCD0BFF35F8F4246B8
:1027D000594652880A804246514651801269BFF3D9
:1027E0005F8F0021116083F31088ACE6064800F08B
:1027F00087FA24184D4114E76568246806E7C04647
:10280000046B00203C700540004005400925001085
:1028100070B52E4C2569002D04D00A212C48FFF7F5
:10282000FFFD70BD2B4E0321300000F05FFAE66023
:10283000FFF714FB284B03229C46D02322701B0673
:102840001B6801216370254B6044A3600F23800047
:1028500020610220638063694942A18019800231AE
:10286000198647311D83585218315A5275325C39D6
:102870009952183201319952183201319952183255
:1028800001319952083518329D520231183299524D
:1028900018320131995218320131995218320131EE
:1028A00099521832013199521832013199520C4B18
:1028B0000C49DC6001303562FFF744FB0121032045
:1028C000FFF708FB084B1D60A7E7C046DC1000209F
:1028D000306B00200040054040000034FFFF100036
:1028E000046B00200925001038600540004870473F
:1028F000DC100020F8B51F0008AB1B7804001600A0
:10290000002B07D100F004FA32003B00121A8B4171
:10291000002B4CDB2269EFF3108072B61368002B9A
:10292000FCD0BFF35F8F62690223E15E94464B00E7
:102930005B18DB006344002901DB1A88628022698E
:10294000BFF35F8F0025156080F31088002930DB0E
:10295000069A9E60DF601A61079A5A615A880132AE
:102960005204520C161C002A1FD0B0B20A045E801A
:1029700010432669EFF3108572B63268002AFCD046
:10298000BFF35F8FA2881A80A1802369BFF35F8F96
:1029900000221A6085F31088074923788C4601329B
:1029A0009A40E36863441A60F8BD0126DDE7002021
:1029B000FAE701204042F7E73C20000070B5C64628
:1029C000010000B50469EFF3108C72B6206800288E
:1029D000FCD0BFF35F8F02200D5E48696C0080461B
:1029E0006419E4004444002D01DB20884880086914
:1029F000BFF35F8F002606608CF31088002D30DB5C
:102A0000E36063880598013320615B0406985B0CE2
:102A1000A26060611A1C002B21D090B22B0462804E
:102A200018430A69EFF3108672B61368002BFCD0C6
:102A3000BFF35F8F8B8823808D800B69BFF35F8F1F
:102A400000221A6086F310880B7801329A40CB6816
:102A500005498C4663441A6040BCB04670BD0122F3
:102A6000DBE701204042F7E73C20000010B5438936
:102A70000A14934233DD53009B184269DB009446ED
:102A800004696344EFF3108C72B62268002AFCD00C
:102A9000BFF35F8F5A88090494B2090C8A4208D0A8
:102AA0000369BFF35F8F00221A608CF31088002047
:102AB00010BD8022120214435C80012302698371DD
:102AC000BFF35F8F002111608CF3108805490278F5
:102AD0008C469340C268012062441360E8E70020FE
:102AE000E6E7C0463C20000040787047F0B504009F
:102AF0000D0006267642F717C64636196F4100B517
:102B000082B08F4214D811D000F002F932003B009D
:102B1000121A8B41002B15DC002B44D02000290019
:102B200000F02AF902B080BCB846F0BD8642EBD96D
:102B30000026002700F0ECF832003B00121A8B410F
:102B4000002BE9DD00F0E4F832003B00121A8B4163
:102B5000002B0ADB00230193144B3200009314482E
:102B60003B00FFF72BFF0028D8DBB0460026BC4611
:102B7000104A114F7B6A9C4504D8B96A8845CDD963
:102B80009C45CBD11168EFF3108072B60B68002B17
:102B9000FCD0BFF35F8F1368BFF35F8F1E6080F3BD
:102BA000108820BFE6E7002AB8D0CBE7D924001070
:102BB000DC100020306B00200040054070B506009E
:102BC00000F0A6F8FA2204000D00002330000021D6
:102BD000920001F08FFA00196941002902DBFFF72A
:102BE00085FF70BD012001494042F8E7FFFFFF7FEC
:102BF000F0B5CE46474680B504000D0083B0EFF334
:102C00000587002F0DD0364A0020536A8B4203D32C
:102C1000926A0130A24250D303B0C0BCB946B0465C
:102C2000F0BD304B9846DB689946434648461E78CF
:102C300000F066F80B00494602000436B6007158F1
:102C400020008E1A2900801A99418F4211DC0ED083
:102C500020BF234A0020536AAB42DDD3926A013081
:102C6000A242D9D2E81A421E9041C0B2D4E78642AD
:102C7000EED900F04DF822002B00121A8B41002BE8
:102C800020DB00230193184B2200009340462B00C9
:102C9000FFF794FE011E15DD114B2E005A6A954276
:102CA0001CD89B6AA34217D34046FFF7DFFE0C4AAD
:102CB0000020536A9E42AFD8D0E7581A421E904176
:102CC000C0B2A9E7064A0020536AAB42A4D3926A75
:102CD0000120A242A0D2C5E79542E5D120BFE3E79B
:102CE00000400540DC100020D924001010B5024A35
:102CF0000248FFF727F810BD5C5604107824002026
:102D00000300416A0A00986A596A8A42FAD17047F8
:102D1000034B596A0A00986A596A9142FAD170477E
:102D20000040054070B504000D00124A536A1900B6
:102D3000966A536A8B42FAD13000190024184D412B
:102D4000AB4211D80ED02B000A494A6A9A42FCD3F2
:102D500007D1084A02E0516A994202D1916AA14220
:102D6000F9D370BDA642EED9012301246442E517D0
:102D70005B42E9E700400540064A536A9942FCD8A5
:102D800007D1044B02E05A6A914202D19A6A824208
:102D9000F9D3704700400540F8B5DE464E46574629
:102DA0004546E0B58B4605000A991800160000F06C
:102DB00045FB0A9B6C001F02324B64199C46A40021
:102DC0006444636881469F4200D967602B1FDBB271
:102DD0009846012B30D9C02380229B01E3181201B1
:102DE0001A60294BAD0059599A4600291BD1226817
:102DF00076017240E0268023164042465B01E318CC
:102E00001E60012A30D9802380229B01E318120121
:102E10001A6053464A4667605A51F0BCBB46B246F8
:102E2000A946A046F8BD586900F008FB431C5800AD
:102E3000C0180338FDD2DAE75B46012BCBD1C023A3
:102E400003229B01E3181A60023AA3681A42FCD0DD
:102E5000E0232268760156401E4080230A4A5B0127
:102E60009246E3181E60AD005A4621685140032285
:102E70000A401A6001225B469A40A3681A42FCD0BD
:102E8000C1E7C046008000407C240020F0B54646E3
:102E90004F46D646C0B51F00344B44009C4624180C
:102EA000A4006444636888461600FF2B02D8802380
:102EB0005B006360031FDBB29A46012B30D9C0234D
:102EC00080229B01E31812011A60294B8500595991
:102ED000994600291BD1226876017240E0268023A2
:102EE000164052465B01E3181E60012A30D9802348
:102EF00080229B01E31812011A6080235B0063604B
:102F00004B465F51E0BCBA46B146A846F0BD586991
:102F100000F094FA431C5800C0180338FDD2DAE7D9
:102F20004346012BCBD1C02303229B01E3181A6037
:102F3000023AA3681A42FCD0E02322687601564088
:102F40001E4080230A4A5B019146E3181E608500FB
:102F500042462168514003220A401A60012342463A
:102F60009340A2681342FCD0C1E7C04600800040F5
:102F70007C240020014B8000C05870477C24002036
:102F8000F8B5040020481D0017000E0000F056FAA6
:102F90000100380000F052FA069B29041B03194374
:102FA0002368002B1EDB194B194DE21853425A417E
:102FB00080235B019C461203164B62441A60164B39
:102FC0001A6017002B689F43FBD1144B2660E21850
:102FD0002123A06013602368002BFCDA0823E16042
:102FE0001360F8BD3F2322681340B342DBD1A368CE
:102FF0001B051B0D8342D6D1EE22E368D20213409B
:103000008B42D0D1EDE7C046001BB7000040FDBFAA
:1030100008C0004000E0004000F000400430000024
:1030200010B5140080221B4BD2051A6000281AD05C
:103030000123194A1843194BDA61194A42401A62AE
:10304000596298628022134BD2051A601549164ABC
:103050001160E022D2041A60002C07D18022134BA9
:1030600012061A6010BD0D4BD861EBE763011B1B04
:103070009A008023121912015B049A4200D30C4A71
:103080000C4B1A60054B5A608022084BD2051A601F
:10309000E8E7C04600B00540D3C007B00080054057
:1030A0002D3FF84FFCFF01000820014000A0054023
:1030B000FFFFFF00F42A00208023024A9B000B43FD
:1030C000D362704700800540142310B501001888B2
:1030D00004331B88984710BD162310B501001888CB
:1030E00002331B88984710BDF8B54746CE4680B5D9
:1030F0000F1E19D01423994604330400002501261D
:1031000098464B461888434621681B88984701C457
:10311000431E9841013540420640AF42F1D1300094
:10312000C0BCB946B046F8BD0126F8E7142370B517
:103130000400188804331B880D00054998470300D4
:103140000020002C01DB0130A04029009847C04638
:1031500055420000AA23064A1B0113608D235B0021
:10316000D3600449044B19605368002BFCDA7047A4
:103170000040024000B0FA00006002407047C046C4
:1031800010B50148FEF7C6FD8056041070B5074D16
:10319000074EB54209D20024013E761BB60808CD81
:1031A000984723000134B342F9D170BD80C40010A8
:1031B000BCC40010054B064A06491A60064A074B74
:1031C0001A6010000B689843FBD1704700E0004084
:1031D000BFCDFBFE08C00040FE7F3C0000F0004079
:1031E000044BDB6C002B03D18022034BD2021A600C
:1031F0007047C046000011504C201150044A054B46
:103200001A60054A1368DB018033FBD17047C04662
:10321000FFFFFF0100F0004008C000404022034BC8
:103220009A675A671A67DA667047C04600F001402D
:1032300010B5FEF72FFE10BDF8B52D492D4C2E4DC3
:10324000641AA6103200302E00D9302228009200D5
:1032500001F0A0F9BC2C41D80123711C08009C4648
:10326000264A30293DD92F272C196407E30FBF1BAD
:10327000052F19D9302917D8002B36D0B1006A5044
:103280006146CC1AF3189B006108EB18C900C918F5
:103290001A605A6008338B42FAD101232100994306
:1032A00046188C421AD0711CB300EA50302915D050
:1032B00089006A50B31C2E2E10D09B00EA50F31CDC
:1032C0002D2E0BD09B00EA50331D2C2E06D09B00D8
:1032D000EA50731D2B2E01D09B00EA50084B9D60D5
:1032E000F8BD2F339B1B9C46BDE73000C8E7C046A6
:1032F00000010010C001001000000020C1010010FA
:1033000000ED00E0002310B5294C82B0A367FFF761
:1033100021FF0122274B1A60636C012BFCD1032291
:10332000254B1A60224A936B012BFCD10133009389
:103330000121224A22480433FFF722FE05230121FE
:103340000093204A2048FFF71BFE002202210420A0
:103350001E4BFFF79BFD0022012105201C4BFFF7B0
:1033600095FD0022002107201A4BFFF78FFD002258
:1033700000210820174BFFF789FD8023DB00009315
:10338000002200210920134BFFF706FD0022104BFD
:1033900000210620FFF77AFD0420FFF7EBFD0E4920
:1033A00000F04CF801000020FFF786FE02B010BDCF
:1033B000008000403CB0004030B00040002F685911
:1033C00000800240008C864700C00240001BB7000E
:1033D00040597307006CDC0240420F000148042191
:1033E000014B184700110020E9300010124A936F7A
:1033F0009B0815D29066D166002905D0FFE7FFE74C
:10340000FFE7516F106F704704B580210906C2179E
:103410005140002800D0C84308F0EAFF002104BD55
:10342000F0B5146E556E576F166FFFF7E3FF146615
:10343000556657671667F0BD000000D0114A936FBC
:103440009B0813D210665166002905D0FFE7FFE7FD
:10345000FFE7516F106F704704B5002801D00020BE
:10346000C04308F0C5FF002104BDC046F0B5146E8E
:10347000556E576F166FFFF7E5FF14665566576771
:103480001667F0BD000000D094464A4A926F920839
:10349000624601D228E0C046F0B5464E346E756EE5
:1034A000776F366F00F020F89446424A14665566EE
:1034B000576716676246F0BD94463E4A926F92087F
:1034C000624601D254E0C046F0B53A4E346E756E95
:1034D000776F366F00F04CF89446364A146655669E
:1034E000576716676246F0BD002B24DB11D0002918
:1034F0003EDA00B5C943404200D1013100F038F84E
:10350000C943404200D10131DB43524200D1013373
:1035100000BD002AEBD1002801D1002905D00020F0
:10352000C90FC90701D1C043410800B508F050FFD9
:103530000022002300BD00B500290ADBDB43524214
:1035400000D1013300F014F8C943404200D10131E9
:1035500000BDC943404200D10131DB43524200D19A
:10356000013300F005F8DB43524200D1013300BDC6
:10357000002923D1002B18D1002A0CD0BC460D4FB6
:1035800038667A6600210023FFE7FFE7FFE77A6FDE
:10359000386F67467047002801D00748010000B522
:1035A00008F016FF0022002300BD02000B000020DF
:1035B00000217047000000D0FFFFFFFF002B00D06C
:1035C000BFE0130C28D1002AE7D080B4114F396630
:1035D0007A66FFE7FFE730B4040C7B6F396F1B049A
:1035E00023433B667A66FFE7FFE7FFE7C04684B206
:1035F0007B6F3D6F1B0423433B667A66FFE7FFE763
:10360000C04600232C042D0C7A6F386F00196941D5
:10361000B0BC7047000000D0F0B594460025140EF1
:1036200001D112020835140F01D112010435940F93
:1036300001D192000235D40F01D152000135D40BD3
:103640000134254F7C66254C3C660E0C93B2FFE797
:10365000FFE7FFE73C6F6643360C7703BE467343D4
:10366000DF0B5B04C01AB941130C7343DB18C91A92
:10367000CE086643360CB64493B273431F0F1B014A
:10368000C01AB941130C73431F0B1B05C01AB94173
:10369000860D8F023E436643360C092D24DB520A09
:1036A0007243801A7703460A6643360C16235B1B67
:1036B000DE40DF40BF1964466643821B7046043516
:1036C00006330100D940A840C01900D30131A242FD
:1036D00006D20023F0BD0000000000D0FFFFFFFF76
:1036E000121B0130F3D3F1E709277F1BFE4064462C
:1036F000A2B27243801A00D20139220C7243130C19
:103700001204821A99410B007046043513370100E8
:10371000F940A840801900D30131002B02D1A24208
:103720000AD2F0BD013000D30131121BFAD2013BA5
:10373000F8D1A24200D2F0BD013000D30131121BFA
:10374000F7E7F0B51C0C00D080E00CB400251C0A93
:1037500004D11B02160E3343120208351C0B04D190
:103760001B01160F3343120104359C0B04D19B003F
:10377000960F334392000235DC0B02D192185B4165
:1037800001351C00971864410134464F7C66464C55
:103790003C660E0CFFE7FFE7FFE7C0463C6F664361
:1037A000360C7703BE4697B27743C01B00D201396F
:1037B000C01B00D201399FB27743C91BC91B170C2C
:1037C00077437E04FF0B801BB941CE086643360C5D
:1037D0000C2D33DBB644120B1F053A431B0B97B27B
:1037E0007743C01B00D201399FB27743C91B170C26
:1037F00077433E043F0C801BB941860D8F023E4348
:10380000664329277F1BFE400C3D7746AF40BF191A
:1038100030BCA2B2ABB272437343801A9941220CFE
:103820007243130C1204801A994102000B000137F5
:10383000001BA941F9D2781E0021F0BD0C277F1B87
:10384000FE4077467F0BAF40FF19E0E700245D1C88
:1038500007D0144F7D663966FFE7FFE7FFE7FFE714
:103860003C6F95B29EB265436643401BB141150C57
:103870001E0C6543664336042F0C3E432D04401B4B
:10388000B141994204D202000B0020000021F0BD9A
:1038900001D19042F7D3801A994101349942F2D371
:1038A000F6E70000000000D0FFFFFFFF4840414066
:1038B000484018B41B4B5B68FC46019308BD04DF0D
:1038C0006B3B001018B4174B1B68FC46019308BDF6
:1038D00000DF753B00109446134A926F920809D29C
:1038E000624618B40F4BDB68FC46019308BD0CDF41
:1038F0002D3E00100C4AF0B5146E556E576F166FC2
:103900006246FFF7EEFF084A14665566576716676A
:10391000F0BD18B4034B9B68FC46019308BD08DF5B
:10392000D13C0010381B0020000000D0FFB55040F3
:103930004240504059404B40594000E0FFB5154FC0
:103940004C00640D03D0BC4204D10C0314D80020F9
:10395000090D09055C00640D03D0BC4204D11C03B1
:103960000AD800221B0D1B0501264B4009D44B40F1
:1039700003D58B4200D18242FFBD9942FCD19042D7
:10398000FFBD0B43DB1803431343F5D0C94349186C
:10399000FFBD0000FF07000000B5FFF7CFFF80412B
:1039A00000BDC04600B5FFF7C9FF01D9002000BD2A
:1039B000012000BD00B5FFF7B9FF01D9002000BD0F
:1039C000012000BD00B5FFF7B1FF804100BD01201F
:1039D00040054A00121804D85A00121801D80020D5
:1039E00070470120704700000021002805D1704772
:1039F000C1174840401AFAD0C90713B5064B1B68D7
:103A000098470CBC441CA2401005120B0349091B2B
:103A100009051943114310BD2C6B00201F04000041
:103A200010B54C00620D8023D218DB00D21A5B0562
:103A30007E2A10DD9E3A13DACC1709034908194390
:103A40005242D140640001341532202A05DAD040B8
:103A50000843604310BD002010BD0846604310BD00
:103A6000C80FC018013810BD18B4044B5B6AFC467F
:103A7000019308BD24DFDD3F00100000381B00204B
:103A800018B4044BDB6FFC46019308BD7CDF5D403E
:103A900000100000381B0020132370B51D78012D85
:103AA00019D014DD1E48FFF717FB06001D48FFF76D
:103AB00013FB1D4C80223100200000F06BFD022D15
:103AC00006D01A48FFF700FB194B186070BD164C62
:103AD000184BA364F5E7174B134C23606360A36096
:103AE000E36023616361A361E36123626362A362B4
:103AF000E36223636363A363E36323646364A36494
:103B0000E36423656365A365E36523666366A36673
:103B1000E36623676367A367E367A364D1E7C046EF
:103B20005344000053460000381B00204C33000073
:103B30002C6B0020393B001007B5604601880A0A4B
:103B40000230DF2AFAD1C9B2820804D30288408841
:103B50000004104300E00068014A5050039007BD84
:103B6000381B00200FB403BC0CBCF0B50124E407E3
:103B7000634000E0F0B50C0DCF0F661E3605891BC3
:103B8000640503D3C943404200D30131640D03D01F
:103B9000661CF60A07D0E41B00207F00791C890709
:103BA0008912803C24031D0DDF0F6E1E36059B1B02
:103BB0006D0503D3DB43524200D301336D0D03D0B7
:103BC0006E1CF60A07D0ED1B00227F007B1C9B07B2
:103BD0009B12803D2D032F1B661B58D4A446202E1C
:103BE00046DA20371400BC401D00BD40F24033418E
:103BF0002A4380185941CB0F05D0C943C043002246
:103C000064425041514162464D0D28D10D0D07D1FE
:103C100000281FD0241940414941013A0D0DF9D027
:103C2000640006D3013000D30131002C01D14008DB
:103C30004000013A0BD4941CE40A04D1120511444B
:103C4000DB071944F0BDD907204B194300E0D90721
:103C50000020F0BD0029DDD1002CDBD1F0BD013208
:103C6000C6074008CD0728434908002EE1D0D9E710
:103C70003C2E29DA203E40371400BC4000D00124FD
:103C8000F24014431A00BB401C43D317ACE7AC46C8
:103C9000202F08DA20360400B4400D00B540F8406B
:103CA00039412843A5E73C2F0CDA203F4036040079
:103CB000B44000D00124F84004430800B1400C4354
:103CC000C117EAE710001900002494E70000F07F14
:103CD000F0B50C0D661E3605891BE60A6405640DF9
:103CE00002D0651CED0A04D0002001210905803CAA
:103CF0002403A4461C0D671E3F05DB1BE70A640571
:103D0000640D02D0651CED0A04D0002201231B05BE
:103D1000803C24037740644497B484B296B27443E1
:103D2000070C7E43150C6F4380B26843361802D3EC
:103D3000012000043F183004350C00197D418446F1
:103D400088B29AB250430C0C62431F0C7C438EB273
:103D50007E43921902D301263604A4191604170CC7
:103D60003618674101BC81B29AB25143040C6243D8
:103D70001B0C5C4380B25843121802D3012000048C
:103D800024181004130C401863412D185E410020C4
:103D9000474106BC88B293B258430C0C6343120CE3
:103DA000544389B251435B1802D3012109046418BA
:103DB00019041A0C091862416D1856410020474138
:103DC00018BCF902720D1143F0026A0D1043ED02A6
:103DD0000A0D03D16D1940414941013B124E9B1B15
:103DE0007600B3420ED26D0007D301300026714138
:103DF0006646354301D1400840001B05C918E40759
:103E00002144F0BD0BDA013306D1013004D1013178
:103E10004F0D01D04908F2E7E1070020F0BD01365F
:103E200031050020EBE70000FF030000F0B51C0D9A
:103E3000671E3F05DB1BE70A6405640D02D0661CA4
:103E4000F60A04D0002201231B05803C2403D02560
:103E50002D060026F6432E661E096E66CE0FF61955
:103E6000B44649004F0D02D07E1CF60A03D0002054
:103E70000021403F3F033E1BB600B444013F7F0595
:103E8000C91B49082E6F013676089C02950D254303
:103E90007543ED137543AD1301356D10F603761BB5
:103EA0000CB4CC02450D2C43A2B2B3B25A43270C3A
:103EB0007B43350C6F43A4B26C431B1902D301241E
:103EC00024043F191C041D0CA4187D4124196D41C4
:103ED000009A91B2ACB26143170C7C432B0C5F4348
:103EE00092B25A43A41802D301221204BF1822042A
:103EF000230C52187B41019C6C431B19520ED901B3
:103F00000A434401A01A81B2B2B2514303145A4386
:103F1000360C734387B27743D617D21900277E41F8
:103F200036049B191704160C7F185E417316ED18A2
:103F3000F301002680337541A90F06D16400690A98
:103F4000E8055B0A184309D22FE004229444803329
:103F50007541A90AA8059B0A184326D34041494147
:103F60002404009A019B0D005543641B4343E41A4B
:103F700095B286B27543170C7E43030C5F4392B231
:103F80005A43B61802D301221204BF183204330C6C
:103F900052197B4152429C41002C02D40022013034
:103FA00051414008CA071043490802B06246D7078A
:103FB0009210084BD218084B9A4203D21205891866
:103FC000C919F0BD0020002A01DC3900F0BD013321
:103FD0001905F5E7FD030000FE070000002200B50B
:103FE000203200F004F8080000BD000000220B158C
:103FF0000AD410B5944600F05FF81414013400DAC6
:104000000021CB17144C2047002000217047624448
:10401000343A0CD40C2A07DA040091409040524202
:104020002032D440214310BDD843D94310BD2032A3
:1040300007D40C469440524220321141D0402043D4
:1040400010BD0800C917203203D45242203210415B
:1040500010BD1800190010BD0F4000104A00520D8D
:10406000144BD21A13DDFF2A1EDAD205CB0FDB0761
:104070001A43C300400F0903490A084310435B0079
:1040800001D301D0013070474308FBD2704702D002
:10409000C80FC00770470A0312130132F8D1420F4C
:1040A000072AF5D1012200E0FF22C80F0002801884
:1040B000C0057047800300000A0DCC0F531E1B057E
:1040C000C91A520503D3C943404200D30131520DEE
:1040D00003D0531CDB0A07D0121B00206400611CB4
:1040E00089078912803A1203014BD21A70470000E7
:1040F000FF03000051434343C9188C46110C83B29F
:104100004B4310B4040C614392B280B250436243FB
:104110001C041B0C001910BC59411304120CC018CC
:1041200051416144704700004840414048400E4BB7
:104130005B6818470C4B1B6818470C4A936F9B0829
:1041400002D2094BDB681847F0B5146E556E576FF5
:10415000166FFFF7F6FF054A146655665767166730
:10416000F0BD014B9B681847381C0020000000D0B0
:1041700007B548404140484001E0C04607B542000D
:10418000120E03D0FF2A03D1420218D8C00DC00579
:104190004A00120E03D0FF2A03D14A020FD8C90DDC
:1041A000C9050122414005D4414001D5814207BDE6
:1041B000884207BD0143491801D0C043001807BD1C
:1041C00000B5FFF7DBFF804100BDC04600B5FFF73B
:1041D000CFFF804100BD491A002807D1084670472B
:1041E000C10FC90700D54042002817D0F44603B4D8
:1041F0000B4B1B68984706BC81409E38404280317B
:1042000007D20B0607D04900490AC00510430843EE
:1042100060470130F8E7490A8902F5E77047000076
:104220002C6B002041000A0E80231B067E2A0BDD2A
:104230009E3A0BDAC1174002400818435242D04060
:10424000490001314843704700207047C00FC01833
:1042500001387047C0420DD300B54000400800212E
:1042600000F012F8002801D4404200BD8020000672
:1042700000BD0000034BDB69FC4618471CDF054509
:1042800000100000381C0020014B5B6A184700003A
:10429000381C0020014B1B6B18470000381C002005
:1042A000034BDB6FFC4618477CDF1D450010000008
:1042B000381C00204100090E862902DA044BDB6B12
:1042C0001847044900B500F001F902BC8E46F5E735
:1042D000381C0020DB0FC9404100090E862902DA94
:1042E000044B1B6C1847044900B500F0EFF802BC02
:1042F0008E46F5E7381C0020DB0FC940132310B5AC
:1043000012481C78FEF7E8FE0100012C0AD003DDFC
:1043100080220F4800F03EF90E48FEF7D5FE0E4B06
:10432000186010BD0A4C5422200000F033F90B4BEA
:104330006365A365E36523666366A366E366236737
:104340006367A367E3672362E361E5E75346000021
:10435000381C00204C3300002C6B0020D944001086
:1043600043001B0E7F3B08D41722D31A002B03DD1A
:10437000163A9A40534218407047C00FC007FBE7F7
:10438000F8B5454657464E46DE46E0B5FF26884618
:10439000C50DC90D35401700041C0E40002A01D080
:1043A00000231360FF2D60D0002E5ED0002D5FD063
:1043B000201CFF2E53D0731EAB4250DCE20F9446FC
:1043C0008022120491466402640A1443424649461C
:1043D0005202520A11438946AB4251D06346002B28
:1043E00058D000216442AD1B002D5CDD4B460120FE
:1043F000D9114042FFF722F81D23834600219C4635
:104400002A000C2D00DD0C225846631294404343D1
:104410006046A246801A03414C4650469140013303
:104420005B105C435918041BAD1A002DE8DCA14554
:1044300037DC4B46E41AA14546DCE41A023163003E
:104440004B4519DC16D04346002B00DA4942002FB9
:1044500000D0396096212000891BFFF71BFFF0BCBC
:10446000BB46B246A946A046F8BDFF20C005F6E708
:104470000020F4E7CB07E6D54B460131E41AE2E72A
:104480008C42ECDD6346002B13D14B002E00012142
:10449000E41AD8E7AD1B002DA8DC8C4211DA00210C
:1044A000CDE7002CCBDA4B46E41808D54C44023952
:1044B000C5E74B0001212E001C1B4942C3E701390F
:1044C000BDE74B460021E41A0131B8E710B50022E0
:1044D000FFF756FF10BDC04607B5604601880A0ABF
:1044E0000230DF2AFAD1C9B2820804D30288408898
:1044F0000004104300E00068014A5050039007BDDB
:10450000381C00200021C2158032803201D0024ABE
:104510001047002070470000CD2A0000C30FDB07C2
:1045200041000A0E07D0FF2A08D00909054A891858
:104530001943400770471900002070470249C91805
:10454000FAE70000000000380000F07F10B504001A
:1045500007F0CAFA002804D0034B04199C4200D883
:1045600010BD0248FDF7D6FB000004208C56041055
:1045700010B507F0C3FA10BD01480421014B1847DC
:1045800010110020E9300010014B1B681847000093
:1045900010110020014B5B6818470000101100202B
:1045A0009A4200D2885470477047C046F8B55746C3
:1045B0004E464546DE46E0B599460A9B07009A46B8
:1045C0000D9B8846934615000B9E9B0710D10C9BB4
:1045D0009E420DD29D1B14000E005D4422004B46EE
:1045E000013431002020B847A542F7D1B0460B9ED8
:1045F000002E27D0444675195346AA1B013E985DEC
:1046000021004B46B847002EF6D123002C009846D7
:104610000D9B9B070FD55B46E51A0C9BAB420AD955
:104620004646984622004B46310020200135B847C7
:104630000134A845F6D82000F0BCBB46B246A946D6
:10464000A046F8BD2C00E3E7F0B54F464646D646F7
:10465000C0B584B098460EAB1B78129F994694461D
:104660000D9C109B119EBA0725D4002E4BD19C4265
:1046700000D3BFE001223A4092461F2C00D9B8E097
:104680000C9A551E302201E0202C03D001342A550B
:10469000A342F9D85246002A0DD0A6420BD9202CAD
:1046A00044D00C9A551E302201E0202C3ED001341B
:1046B0002A55B442F9D1FA064DD57A053FD4002CDB
:1046C00039D10F9B102B00D179E00F9B022B00D129
:1046D0008AE030230C9A012413704B46002B3FD004
:1046E0002D230C9A135501340C9B624600930397BB
:1046F000434602960194FFF759FF04B0E0BCBA4666
:10470000B146A846F0BD012215003D40AA463A42F6
:104710002FD04A46002A02D10C323A4200D0013E44
:104720009C42BAD21F2CABD9202E27D92024FA06BE
:10473000DAD57A0503D4A3422DD0A6422BD00F9B05
:10474000102B32D0022B20D0202CCDD030220C9B2D
:104750001B191A700134202CC6D04B46002BBFD138
:104760007B070DD43B07BFD520230C9A135501348A
:10477000BAE79C429FD21F2C00D881E720249AE7F9
:104780002B230C9A13550134AEE7202CACD00C9B94
:104790001B1901343AE0631E012C92D00F9A102AA3
:1047A0002AD0022A2FD01C00D0E7BB060ED4202C22
:1047B0009AD00C9B1A19013478231370C4E7BB06F6
:1047C0000DD478230C9A01241370BFE7202C00D15C
:1047D0008AE758220C9B1B191A700134B4E758233E
:1047E0000C9A01241370B1E70C9A60330124137002
:1047F000ACE7202400265EE7023CBA06E9D40C9A16
:1048000012191C00D8E70C9A9246534462221A707F
:104810009AE7C04610B5002800D110BD01F020FB7A
:10482000FBE7C0460B0010B5002802D049681B68A2
:10483000984710BDF0B5DE4657464E464546E0B5B2
:104840009BB09B46249B89469846259B0B900C92D7
:104850004046424619009A46FFF7B9F8002800D0B2
:10486000D8E0012240465146774B5242FFF7AAF862
:10487000002800D0CEE0012240465146734B524200
:10488000FFF78AF8002800D0C4E000220023404649
:104890005146FFF781F8002800D0B9E1424653465F
:1048A0000A9209938023289ADB001A400E92289AD4
:1048B0001A4201D1062326930A9A099B1600134334
:1048C00000D0C7E0289B002500261B0500D49BE1F3
:1048D00000230D93269A0D9B9A4200DC9FE1D01A8B
:1048E000431E26938023289ADB001A4300230027C7
:1048F00028920D93279B0024BB4200D9DC1B022386
:10490000289A1A400E92289A134203D07B427B4188
:104910005B421C400D9B002B07D00A9809992A0086
:104920003300FEF7D8FF0A90099100220023404689
:104930005146FFF731F8002805D080200006844654
:10494000099961440991289A414B0B9D13400493A6
:10495000269B0A9A0293099B03940092019349466D
:104960005B4628000C9A00F08BF90400002F62D0FF
:10497000289B220098061F23C0179843631C984663
:1049800049465B466530A8470D9B0025DA179C1801
:10499000DB0F9A465440013F01E0202D13D00AAAB4
:1049A00094461F23200063440A2101355E19FEF757
:1049B00045FD3031317020000A21FEF73FFD260011
:1049C0000400092EE9D805230693002304930A3333
:1049D0000393534605970B9F029312AB00934246F5
:1049E0005B46494638000195FFF72EFE0E9B0400FA
:1049F000002B20D00C9BC51A279BAB421BD91E0055
:104A000022005B46494620200135B8470134AE42BA
:104A1000F6D810E0289B42460493279B494603930F
:104A2000269B0B9802935346009201935B460C9A87
:104A300000F026F9040020001BB0F0BCBB46B246D3
:104A4000A946A046F0BDC046FFFFEF7FFFFFEFFF86
:104A5000FFF7FFFF734B099F9C467800400D6044B1
:104A6000FEF7C6FF704A714BFEF753FF704A714B59
:104A7000FEF728FF3B03704A1B0B1A4304000D008E
:104A8000300011006D4B0022FEF713FF6C4A6D4B96
:104A9000FEF73FFF02000B0020002900FEF712FF87
:104AA000FEF7BEFF0D90FEF7A3FF674A674B0400B9
:104AB0000D00FEF72EFF0022654BFEF703FFFEF709
:104AC000AFFF644A0600644B20002900FEF721FF77
:104AD000040030000D000F96FEF78AFF5F4A604B1E
:104AE000FEF717FF02000B0020002900FEF7E1FE91
:104AF00002000B0006000F00FEF70BFF320004005F
:104B00000D003B0030003900FEF7DCFE0022109063
:104B10001191544B20002900FEF7DDFE0022524B7C
:104B2000FEF7D0FE02000B0020002900FEF7D3FEA6
:104B300000224E4BFEF7C6FE02000B0020002900AB
:104B4000FEF7C9FE0D008021040032003B0000206A
:104B5000C905FEF7AEFE02000B0020002900FEF79B
:104B6000B1FE02000B0010981199FEF7B4FE00226E
:104B7000314BFEF7A7FE3E4B0F9C9C46644400223F
:104B80002305FEF7C6FE05000E0002000B000A9882
:104B90000999FEF701FF00280AD00D9B2800013B70
:104BA00031000D930022304BFEF795FE05000E00FC
:104BB000C6270D992B0063318F42BF4128997F4250
:104BC0000437090500D495E6334300D182E6099CF9
:104BD000284A2100284B0A98FEF7ECFE002808D04E
:104BE00000222100254B0A98FEF7D6FE002800D0AF
:104BF00070E6269B002B00D17CE60E9B5A1E93414B
:104C0000269AD31A269375E6002304270D9371E69E
:104C100043460A9380231B065344099342E600232C
:104C200026935FE601FCFFFFFB799F501344D33FBF
:104C3000B3C8608B288AC63F0000F03F0000F83FF1
:104C400061436F63A787D23F71A379094F930A40ED
:104C50000000E03F1655B5BBB16B0240EF39FAFEDC
:104C6000422EE63F00002C40000024400000184087
:104C7000FF0300002D431CEBE2361A3F80842E41D7
:104C8000F0B54E46DE4657464546E0B597B09946E4
:104C9000209E219F229B8346984607910C923B00C1
:104CA000320030003900FEF792FE002800D0A9E162
:104CB000012230003900CA4B5242FEF76DFE002837
:104CC00000D0E1E0012230003900C64B5242FEF72D
:104CD00079FE002800D0B7E0002230003900C24B36
:104CE000FEF770FE002800D099E000223000390065
:104CF000BE4BFEF751FE002800D090E000220023BA
:104D000030003900FEF748FE002800D0B1E0002353
:104D10000D93249B5B0501D40623984608AB9C4663
:104D20001722002430234146624404E00134135525
:104D30000139202C01D00929F8D8884630003900E3
:104D4000FEF76EFE4346DA00A94B05009B181A6871
:104D50005B6808920993FEF74BFE02000B003000DF
:104D60003900FEF7A6FD089A099BFEF7D2FD0A90CE
:104D70000B91FEF779FE8246FEF736FE02000B002D
:104D80000A980B99FEF795FD00229A4B0A900B9119
:104D9000FEF718FE002800D1C0E001239C46E24443
:104DA0005046FEF721FE02000B0008980999FEF715
:104DB000F9FD002802D000239A4601354346002B16
:104DC0006AD008AB17269C4608956644554614E001
:104DD00001235B4243440A2128009A46FEF72EFB3A
:104DE000013430313719397028000A21FEF726FBCB
:104DF000092D00D8D0E0D0460500202CE8D10EAB1C
:104E000098460323249A1340012B00D196E02023D7
:104E1000249A01930392239A434602921EE0249B14
:104E200058460493239B00960197039343460C9A9C
:104E3000029307994B46FFF7FDFC17B0F0BCBB4649
:104E4000B246A946A046F0BD249B5B070ED40322C0
:104E5000694B24990192039123990291009358463A
:104E60004B460C9A0799FFF7A1FBE6E70422634B38
:104E7000EFE73B00320000200021FEF71AFD01237E
:104E800006000F000D9344E7249B0393239B02939A
:104E9000042301935A4BE1E72800FEF7A9FD020025
:104EA0000B0030003900FEF704FD524B00220600D3
:104EB0000F00FEF771FD0EAB984600280AD10022C4
:104EC000300039004B4BFEF77DFD002802D1EB0787
:104ED00000D50135202C94D008AA94461723280029
:104EE00063440A2101341E19FEF780FA303128008C
:104EF00031700A21FEF77AFA051EEBD10323249ABA
:104F00001340012B1BD0202C00D180E70D9B002BE0
:104F100035D02D224146631C0A5579E700220A98B4
:104F20000B99344BFEF738FD002800D046E7534676
:104F3000002B51D101239C46E2443FE72024239BD0
:104F4000002BE0D00D9B002B03D1249A0C3313428D
:104F500002D0239B013B2393239BA342D3D908ABCD
:104F60009C46172230236244202C00D14FE723991E
:104F7000013413558C42C6D0202CF8D147E7249B2E
:104F80005B0724D4249A2300120700D440E7202290
:104F9000414601330A553BE75746089D202C00D176
:104FA0002DE7220030214046002F09D00132B154B4
:104FB000202A00D123E7D3431B191B18002BF5D15E
:104FC0000EAB98462E234146541C8B5482E72B226D
:104FD0004146631C0A551BE7DB0700D4EEE6A9E750
:104FE000FFFFEFFFFFFFEF7F65CDCD4165CDCDC169
:104FF000305904100000E03F3457041038570410B3
:1050000044570410249B0393239B0293032301938F
:10501000004B23E740570410F0B5DE464E46574696
:105020004546E0B59FB01C00289B91460993C94AAC
:10503000C94B8B4608901A60002900D118E2002362
:1050400020789A46002800D11AE226001D005C460E
:105050000AE02A006F1C4B46089D2100A8473D002E
:1050600001363078002870D02528F2D110239B46D5
:10507000083B9A46043B9846023B00219C46721C22
:10508000107816000300203BDBB2102B03D8B34F7F
:105090009B00FB589F460300303B092B32D900236D
:1050A0000A932A2868D0002398462E283ED0030071
:1050B000683BDBB2122B1CD8A94A9B00D3589F46F1
:1050C000012301321943DBE7634601321943D7E775
:1050D000434601321943D3E75B4601321943CFE718
:1050E000534601321943CBE780235B0070781943A4
:1050F00001360300253BDBB2532BAAD8994A9B000B
:10510000D3589F4600270300B800C019013640005D
:10511000C018337830381A00303A0700092AF3D91A
:105120000A901800002398462E28C0D1802370785A
:10513000DB0019430300303B721C092B00D8A1E1AE
:105140002A2800D1B2E11600B1E7A346AA462C00F6
:10515000D14503D801235B424B449A464B46524605
:1051600059460020089DA84720001FB0F0BCBB4650
:10517000B246A946A046F0BD099B40CB0A96002E38
:1051800003DB50780993561C8DE7283801437042A1
:105190000A9009935078561C85E7782800D1DFE102
:1051A000582800D14CE26F2800D14FE3622801D18A
:1051B00000F030FC10230A009A430B92692801D0BA
:1051C00000F0A9FC0A230C934B0500D5D0E10B9A03
:1051D000802311009B0019408B461A4200D0A1E2A7
:1051E000802311005B0019408A461A4200D0B6E3C2
:1051F00013005B0600D5EDE2130009991B0601D4EC
:1052000000F076FC08C91BB2D8171A18424092B2B7
:1052100009919346DA0F1292002B09D180231022B4
:105220000B99DB000B4091430B91002B00D0E4E283
:105230000B9A6123920600D541230EA91F228C46AA
:10524000DBB262440A3B5F461395A34655460C9C6D
:10525000B2460D9316000AE03033DBB201357355C8
:10526000A74200D2EDE2202D00D1EAE207002100A2
:105270003800FEF7E3F8CBB20929EDD90D9A944630
:105280006344DBB2EAE780239B0070781943013660
:105290002FE77078682800D1CDE1802301361943CB
:1052A00027E770786C2800D1BFE180235B001943A9
:1052B00001361EE7462800D19BE10722099B049195
:1052C000073393430A9A19000392424602920CC98B
:1052D00008980092019309912A004B462100FFF79C
:1052E000CFFC01360500BCE62A006F1C4B46089D2A
:1052F00021002520A84701363D00B2E68B0700D4E7
:10530000ADE1099B2A009A466B1C9846534601CB97
:1053100021009A46089F4B46C0B2B8470A9B9C465C
:105320006544012B00D886E2089B4746B04626001C
:105330004C4699463A002300013731002020C847E7
:10534000AF42F7D1A1465346340046460993013691
:1053500087E6C04619500010E82800204C5704107A
:1053600090570410DC570410099B04CB9B4643461E
:105370000992002B00D1C6E013789C46002B00D187
:10538000BDE34346013B099A0133D0180A9F13003D
:1053900001E0834203D05A780133002AF9D1099AF7
:1053A0000A979B1A0B9380230A00DB001A400C9289
:1053B000194204D00B9B434501D943460B9302236A
:1053C0001A000A400D920B4200D187E16046002886
:1053D00000D168E10C9B002B00D10DE1A844C2462E
:1053E000099B57465B1B9846089BB2462A0026003D
:1053F0004C46994609E023003100551CC8474346F6
:10540000585D002800D126E12A009742F3D1A14639
:105410003D00340056460D9B002B00D043E15B4617
:10542000013609931DE6099B1A0008CA9246002B13
:1054300048D0212211438B460EA884461F21614487
:10544000099500220F27A4460D0002E0202A0CD067
:105450000B003C001C4020003730092C00D80738D6
:105460000132A85419090F2BF0D86446099D32E087
:10547000DC4B2078089300239A46002800D0E4E50E
:10548000002465E6434606000A9F9800C0180132D2
:10549000400080191678030030003038303B09286E
:1054A000F3D93000984616000A9700E6099B0236A9
:1054B00004CB9046D2434046D21710408046099311
:1054C0003078F4E5102208009043113210438346EF
:1054D00000224905B0D55B46069308230593434651
:1054E0000493102303930023029316AB01920093BD
:1054F0002A004B4621000898FFF7A6F853460500FE
:1055000001360993ADE513789C46002B00D1F7E2F4
:1055100002235B4237E7202302009A43472A04D143
:1055200080231B01194302239843452801D12023DE
:1055300019430722099B0491073393430A9A1900E0
:105540000392424602920CC9089800920193099175
:105550002A004B462100FFF76DF90136050080E572
:1055600010230C930C230A009A430B924B0503D58E
:1055700001230B9A9A430B92692800D127E66428ED
:1055800000D124E60B9A802311009B0019408B4622
:105590001A4200D066E1802311005B0019408A4660
:1055A0001A4200D039E213005B0600D53CE113003B
:1055B0001B0600D4A6E2099B04CB1204120C9346EE
:1055C00009935B46002B00D09AE10B9A103311002F
:1055D00099430B91520500D492E100239A460B9B0C
:1055E00006930A9B0593434604930C9B0393002365
:1055F0000CE12023194360E6099B0A9A5B1B98463D
:105600004B4691461F00B2462600089C2A003B00EC
:105610003100A04743460135585D0028F6D14A467F
:105620003400B94656460A92F5E6C0239B00B0788E
:10563000194302365DE5C023B0781943023658E5B8
:105640000C230A009A4314331A43103B0B920C9319
:105650004B058DD496E7A14634005646DBE60A9A00
:10566000012A00D853E26B1E9F18089BB046260003
:105670004C4699462A002300013531002020C847B6
:10568000BD42F7D1A14634004646099B3A0001CB02
:10569000210098467D1C4B46089FC0B2B847434640
:1056A00001360993DDE40B9B0A9AA8469A4200D87A
:1056B000B5E694466544ED1A089B4746B046260079
:1056C0004C4699463A002300013731002020C84754
:1056D000AF42F7D1A14634004646A0E60B9A0A999C
:1056E000531C914200D814E24B199B1A1F00089BCF
:1056F000B24626004C4699462A0023000135310067
:105700002020C847BD42F7D10A9BA14601330B9325
:10571000099B34001B7856469C466046002800D002
:1057200058E67CE60722099B0733934301329446EF
:105730009C4462465F6809921A68FB1710931193A4
:1057400010981199030053400E930B007B400F9368
:1057500094460E9A0F9B121A8B410E920F93FB0FD9
:105760006246129300233A439B463DD00B9A612335
:10577000920600D541230022DBB20EA90A3B8C46DB
:1057800092460D9343461F32624413951596554633
:105790000E9E0F9FA24690460C9C14930CE0303254
:1057A000D2B2434601355A55BB4500D18AE1202D7E
:1057B00000D18AE106000F002200002330003900EA
:1057C000FDF77AFED2B2092AE9D90D9B9C466244C4
:1057D000D2B2E6E7FF23099904C913401A000991E0
:1057E00017E5C046A94500100B9A103311009943E4
:1057F0000B915205BAD500239A460B9B06930A9B40
:105800000593434604930C9B0393129B02935346C8
:10581000019316AB2A00009321004B460898FEF72F
:1058200013FF013605001CE4FF22099B02CB114047
:105830008B460993C5E65346454609930136FFF763
:1058400010FC56465C46AA46139DD6E708230C93E7
:105850000B910B99642800D084E60B9B5B0500D567
:1058600086E6B4E40722099B07339343013294464A
:105870009C44624609921A685B6810009B461300BC
:105880005A46134307D10B9A1033110099430B91D9
:10589000520500D5A1E60B9A6123920600D541235B
:1058A0000022DBB20EA90A3B8C4692460D9343467A
:1058B0001F3262445F461295A34655460400B24625
:1058C00090460C9E13930DE03032D2B24346013520
:1058D0005A550023BB4200D100E1202D00D100E148
:1058E00004000F003200002320003900FDF7E4FD22
:1058F000D2B2092AE8D90D9B9C466244D2B2E5E7B0
:105900000B9A6123920600D54123DBB20EA90A3B14
:105910001F228C460D93230062445C4612951700AB
:1059200055469B46B2460C9E08E03033DBB201354B
:105930007B55B4420ED3202D0CD004003100200042
:10594000FDF77CFDCBB20929EFD90D9A944663444B
:10595000DBB2ECE756465C46AA46129D3FE6099B41
:105960001A0008CAD91713925A184A409246DA0FF9
:105970001292002B08D1802310220B99DB000B40E0
:1059800091430B91002B2BD10B9A6123920600D5EA
:1059900041230EAA1F279446DBB20A3B0D956744AC
:1059A0005D460993A3465446B2460C9E08E0303348
:1059B000DBB201357B55B4420ED3202D0CD0040050
:1059C00031002000FDF73AFDCBB20929EFD9099A41
:1059D00094466344DBB2ECE756465C46AB460D9D0D
:1059E0000B9B2A0006930A9B2100059343460493D0
:1059F0000C9B08980393129B013602935B4601931C
:105A000016AB00934B46FEF71FFE139B0500099350
:105A1000FFF727FB02230C931AE7099B04CB92465E
:105A20001293002A08D1802310220B99DB000B402F
:105A300091430B91002B2BD10B9A6123920600D539
:105A400041230EAA1F279446DBB20A3B0D956744FB
:105A50005D460993A3465446B2460C9E08E0303397
:105A6000DBB201357B55B4420ED3202D0CD004009F
:105A700031002000FDF7E2FCCBB20929EFD9099AE9
:105A800094466344DBB2ECE756465C46AB460D9D5C
:105A90000B9B2A0006930A9B21000593434604931F
:105AA0000C9B08980393002302935B46019316AB6B
:105AB00000934B46FEF7C8FD129B05000993013683
:105AC000FFF7CFFAB44200D871E6149B54460E9605
:105AD0000F97AA469846159E139D8EE6A64200D8BB
